{
  "abi": [
    {
      "inputs": [],
      "stateMutability": "nonpayable",
      "type": "constructor"
    },
    {
      "inputs": [
        {
          "internalType": "address",
          "name": "sender",
          "type": "address"
        },
        {
          "internalType": "uint256",
          "name": "balance",
          "type": "uint256"
        },
        {
          "internalType": "uint256",
          "name": "needed",
          "type": "uint256"
        },
        {
          "internalType": "uint256",
          "name": "tokenId",
          "type": "uint256"
        }
      ],
      "name": "ERC1155InsufficientBalance",
      "type": "error"
    },
    {
      "inputs": [
        {
          "internalType": "address",
          "name": "approver",
          "type": "address"
        }
      ],
      "name": "ERC1155InvalidApprover",
      "type": "error"
    },
    {
      "inputs": [
        {
          "internalType": "uint256",
          "name": "idsLength",
          "type": "uint256"
        },
        {
          "internalType": "uint256",
          "name": "valuesLength",
          "type": "uint256"
        }
      ],
      "name": "ERC1155InvalidArrayLength",
      "type": "error"
    },
    {
      "inputs": [
        {
          "internalType": "address",
          "name": "operator",
          "type": "address"
        }
      ],
      "name": "ERC1155InvalidOperator",
      "type": "error"
    },
    {
      "inputs": [
        {
          "internalType": "address",
          "name": "receiver",
          "type": "address"
        }
      ],
      "name": "ERC1155InvalidReceiver",
      "type": "error"
    },
    {
      "inputs": [
        {
          "internalType": "address",
          "name": "sender",
          "type": "address"
        }
      ],
      "name": "ERC1155InvalidSender",
      "type": "error"
    },
    {
      "inputs": [
        {
          "internalType": "address",
          "name": "operator",
          "type": "address"
        },
        {
          "internalType": "address",
          "name": "owner",
          "type": "address"
        }
      ],
      "name": "ERC1155MissingApprovalForAll",
      "type": "error"
    },
    {
      "inputs": [
        {
          "internalType": "address",
          "name": "owner",
          "type": "address"
        }
      ],
      "name": "OwnableInvalidOwner",
      "type": "error"
    },
    {
      "inputs": [
        {
          "internalType": "address",
          "name": "account",
          "type": "address"
        }
      ],
      "name": "OwnableUnauthorizedAccount",
      "type": "error"
    },
    {
      "anonymous": false,
      "inputs": [
        {
          "indexed": true,
          "internalType": "address",
          "name": "account",
          "type": "address"
        },
        {
          "indexed": true,
          "internalType": "address",
          "name": "operator",
          "type": "address"
        },
        {
          "indexed": false,
          "internalType": "bool",
          "name": "approved",
          "type": "bool"
        }
      ],
      "name": "ApprovalForAll",
      "type": "event"
    },
    {
      "anonymous": false,
      "inputs": [
        {
          "indexed": false,
          "internalType": "uint256",
          "name": "lotteryNumber",
          "type": "uint256"
        }
      ],
      "name": "Lotteried",
      "type": "event"
    },
    {
      "anonymous": false,
      "inputs": [
        {
          "indexed": true,
          "internalType": "address",
          "name": "previousOwner",
          "type": "address"
        },
        {
          "indexed": true,
          "internalType": "address",
          "name": "newOwner",
          "type": "address"
        }
      ],
      "name": "OwnershipTransferred",
      "type": "event"
    },
    {
      "anonymous": false,
      "inputs": [
        {
          "indexed": true,
          "internalType": "address",
          "name": "operator",
          "type": "address"
        },
        {
          "indexed": true,
          "internalType": "address",
          "name": "from",
          "type": "address"
        },
        {
          "indexed": true,
          "internalType": "address",
          "name": "to",
          "type": "address"
        },
        {
          "indexed": false,
          "internalType": "uint256[]",
          "name": "ids",
          "type": "uint256[]"
        },
        {
          "indexed": false,
          "internalType": "uint256[]",
          "name": "values",
          "type": "uint256[]"
        }
      ],
      "name": "TransferBatch",
      "type": "event"
    },
    {
      "anonymous": false,
      "inputs": [
        {
          "indexed": true,
          "internalType": "address",
          "name": "operator",
          "type": "address"
        },
        {
          "indexed": true,
          "internalType": "address",
          "name": "from",
          "type": "address"
        },
        {
          "indexed": true,
          "internalType": "address",
          "name": "to",
          "type": "address"
        },
        {
          "indexed": false,
          "internalType": "uint256",
          "name": "id",
          "type": "uint256"
        },
        {
          "indexed": false,
          "internalType": "uint256",
          "name": "value",
          "type": "uint256"
        }
      ],
      "name": "TransferSingle",
      "type": "event"
    },
    {
      "anonymous": false,
      "inputs": [
        {
          "indexed": false,
          "internalType": "string",
          "name": "value",
          "type": "string"
        },
        {
          "indexed": true,
          "internalType": "uint256",
          "name": "id",
          "type": "uint256"
        }
      ],
      "name": "URI",
      "type": "event"
    },
    {
      "inputs": [
        {
          "internalType": "address",
          "name": "account",
          "type": "address"
        },
        {
          "internalType": "uint256",
          "name": "id",
          "type": "uint256"
        }
      ],
      "name": "balanceOf",
      "outputs": [
        {
          "internalType": "uint256",
          "name": "",
          "type": "uint256"
        }
      ],
      "stateMutability": "view",
      "type": "function"
    },
    {
      "inputs": [
        {
          "internalType": "address[]",
          "name": "accounts",
          "type": "address[]"
        },
        {
          "internalType": "uint256[]",
          "name": "ids",
          "type": "uint256[]"
        }
      ],
      "name": "balanceOfBatch",
      "outputs": [
        {
          "internalType": "uint256[]",
          "name": "",
          "type": "uint256[]"
        }
      ],
      "stateMutability": "view",
      "type": "function"
    },
    {
      "inputs": [],
      "name": "counter",
      "outputs": [
        {
          "internalType": "uint256",
          "name": "",
          "type": "uint256"
        }
      ],
      "stateMutability": "view",
      "type": "function"
    },
    {
      "inputs": [],
      "name": "getLotteryNumber",
      "outputs": [
        {
          "internalType": "uint256",
          "name": "",
          "type": "uint256"
        }
      ],
      "stateMutability": "view",
      "type": "function"
    },
    {
      "inputs": [],
      "name": "getLotteryNumbers",
      "outputs": [
        {
          "internalType": "uint256[10]",
          "name": "lotteryNumbers_",
          "type": "uint256[10]"
        }
      ],
      "stateMutability": "view",
      "type": "function"
    },
    {
      "inputs": [],
      "name": "imageURI0",
      "outputs": [
        {
          "internalType": "string",
          "name": "",
          "type": "string"
        }
      ],
      "stateMutability": "view",
      "type": "function"
    },
    {
      "inputs": [],
      "name": "imageURI1",
      "outputs": [
        {
          "internalType": "string",
          "name": "",
          "type": "string"
        }
      ],
      "stateMutability": "view",
      "type": "function"
    },
    {
      "inputs": [
        {
          "internalType": "address",
          "name": "account",
          "type": "address"
        },
        {
          "internalType": "address",
          "name": "operator",
          "type": "address"
        }
      ],
      "name": "isApprovedForAll",
      "outputs": [
        {
          "internalType": "bool",
          "name": "",
          "type": "bool"
        }
      ],
      "stateMutability": "view",
      "type": "function"
    },
    {
      "inputs": [
        {
          "internalType": "uint256",
          "name": "_blockNumber",
          "type": "uint256"
        }
      ],
      "name": "lotteryNumber",
      "outputs": [
        {
          "internalType": "uint256",
          "name": "",
          "type": "uint256"
        }
      ],
      "stateMutability": "view",
      "type": "function"
    },
    {
      "inputs": [],
      "name": "mint",
      "outputs": [
        {
          "internalType": "uint256",
          "name": "lotteryNumber_",
          "type": "uint256"
        }
      ],
      "stateMutability": "nonpayable",
      "type": "function"
    },
    {
      "inputs": [],
      "name": "owner",
      "outputs": [
        {
          "internalType": "address",
          "name": "",
          "type": "address"
        }
      ],
      "stateMutability": "view",
      "type": "function"
    },
    {
      "inputs": [],
      "name": "paused",
      "outputs": [
        {
          "internalType": "bool",
          "name": "",
          "type": "bool"
        }
      ],
      "stateMutability": "view",
      "type": "function"
    },
    {
      "inputs": [],
      "name": "renounceOwnership",
      "outputs": [],
      "stateMutability": "nonpayable",
      "type": "function"
    },
    {
      "inputs": [
        {
          "internalType": "address",
          "name": "from",
          "type": "address"
        },
        {
          "internalType": "address",
          "name": "to",
          "type": "address"
        },
        {
          "internalType": "uint256[]",
          "name": "ids",
          "type": "uint256[]"
        },
        {
          "internalType": "uint256[]",
          "name": "values",
          "type": "uint256[]"
        },
        {
          "internalType": "bytes",
          "name": "data",
          "type": "bytes"
        }
      ],
      "name": "safeBatchTransferFrom",
      "outputs": [],
      "stateMutability": "nonpayable",
      "type": "function"
    },
    {
      "inputs": [
        {
          "internalType": "address",
          "name": "from",
          "type": "address"
        },
        {
          "internalType": "address",
          "name": "to",
          "type": "address"
        },
        {
          "internalType": "uint256",
          "name": "id",
          "type": "uint256"
        },
        {
          "internalType": "uint256",
          "name": "value",
          "type": "uint256"
        },
        {
          "internalType": "bytes",
          "name": "data",
          "type": "bytes"
        }
      ],
      "name": "safeTransferFrom",
      "outputs": [],
      "stateMutability": "nonpayable",
      "type": "function"
    },
    {
      "inputs": [
        {
          "internalType": "address",
          "name": "operator",
          "type": "address"
        },
        {
          "internalType": "bool",
          "name": "approved",
          "type": "bool"
        }
      ],
      "name": "setApprovalForAll",
      "outputs": [],
      "stateMutability": "nonpayable",
      "type": "function"
    },
    {
      "inputs": [
        {
          "internalType": "string",
          "name": "_imageURI0",
          "type": "string"
        }
      ],
      "name": "setImgURI0",
      "outputs": [],
      "stateMutability": "nonpayable",
      "type": "function"
    },
    {
      "inputs": [
        {
          "internalType": "string",
          "name": "_imageURI1",
          "type": "string"
        }
      ],
      "name": "setImgURI1",
      "outputs": [],
      "stateMutability": "nonpayable",
      "type": "function"
    },
    {
      "inputs": [
        {
          "internalType": "string",
          "name": "_name0",
          "type": "string"
        },
        {
          "internalType": "string",
          "name": "_description0",
          "type": "string"
        }
      ],
      "name": "setMeta0",
      "outputs": [],
      "stateMutability": "nonpayable",
      "type": "function"
    },
    {
      "inputs": [
        {
          "internalType": "string",
          "name": "_name1",
          "type": "string"
        },
        {
          "internalType": "string",
          "name": "_description1",
          "type": "string"
        }
      ],
      "name": "setMeta1",
      "outputs": [],
      "stateMutability": "nonpayable",
      "type": "function"
    },
    {
      "inputs": [
        {
          "internalType": "bytes4",
          "name": "interfaceId",
          "type": "bytes4"
        }
      ],
      "name": "supportsInterface",
      "outputs": [
        {
          "internalType": "bool",
          "name": "",
          "type": "bool"
        }
      ],
      "stateMutability": "view",
      "type": "function"
    },
    {
      "inputs": [],
      "name": "togglePaused",
      "outputs": [],
      "stateMutability": "nonpayable",
      "type": "function"
    },
    {
      "inputs": [
        {
          "internalType": "address",
          "name": "newOwner",
          "type": "address"
        }
      ],
      "name": "transferOwnership",
      "outputs": [],
      "stateMutability": "nonpayable",
      "type": "function"
    },
    {
      "inputs": [
        {
          "internalType": "uint256",
          "name": "_id",
          "type": "uint256"
        }
      ],
      "name": "uri",
      "outputs": [
        {
          "internalType": "string",
          "name": "",
          "type": "string"
        }
      ],
      "stateMutability": "view",
      "type": "function"
    }
  ],
  "bytecode": {
    "object": "0x60c060405260126080908152714e4f5420464152434153544552203133333760701b60a052600490620000339082620002ce565b5060408051808201909152600f81526e46415243415354455220313333372160881b6020820152600590620000699082620002ce565b5060408051808201909152601c81527f596f7520617265206e6f742046617263617374657220313333372121000000006020820152600690620000ad9082620002ce565b5060408051808201909152601881527f596f7520617265204661726361737465722031333337212100000000000000006020820152600790620000f19082620002ce565b506040518061382001604052806137fe815260200162001ecb6137fe91396008906200011e9082620002ce565b506040518061412001604052806140e28152602001620056c96140e291396009906200014b9082620002ce565b50600a805460ff191660011790553480156200016657600080fd5b5060408051602081019091526000815233906200018381620001c5565b506001600160a01b038116620001b357604051631e4fbdf760e01b81526000600482015260240160405180910390fd5b620001be81620001d7565b506200039a565b6002620001d38282620002ce565b5050565b600380546001600160a01b038381166001600160a01b0319831681179093556040519116919082907f8be0079c531659141344cd1fd0a4f28419497f9722a3daafe3b4186f6b6457e090600090a35050565b634e487b7160e01b600052604160045260246000fd5b600181811c908216806200025457607f821691505b6020821081036200027557634e487b7160e01b600052602260045260246000fd5b50919050565b601f821115620002c957600081815260208120601f850160051c81016020861015620002a45750805b601f850160051c820191505b81811015620002c557828155600101620002b0565b5050505b505050565b81516001600160401b03811115620002ea57620002ea62000229565b6200030281620002fb84546200023f565b846200027b565b602080601f8311600181146200033a5760008415620003215750858301515b600019600386901b1c1916600185901b178555620002c5565b600085815260208120601f198616915b828110156200036b578886015182559484019460019091019084016200034a565b50858210156200038a5787850151600019600388901b60f8161c191681555b5050505050600190811b01905550565b611b2180620003aa6000396000f3fe608060405234801561001057600080fd5b50600436106101575760003560e01c806361bc221a116100c3578063a22cb4651161007c578063a22cb465146102b2578063e364c947146102c5578063e985e9c5146102da578063f242432a146102ed578063f2fde38b14610300578063f979db711461031357600080fd5b806361bc221a14610258578063715018a614610261578063771793f714610269578063781fffdf1461027c5780638da5cb5b1461028f57806398b6a084146102aa57600080fd5b80632eb2c2d6116101155780632eb2c2d6146101f557806336566f06146102085780633cd93ec21461021057806349414762146102235780634e1273f41461022b5780635c975abb1461024b57600080fd5b8062fdd58e1461015c57806301ffc9a714610182578063021bc48e146101a55780630e89341c146101ba5780631249c58b146101da5780632c98d561146101e2575b600080fd5b61016f61016a3660046111c0565b61031b565b6040519081526020015b60405180910390f35b610195610190366004611200565b610343565b6040519015158152602001610179565b6101b86101b33660046112db565b610393565b005b6101cd6101c8366004611318565b6103ab565b6040516101799190611381565b61016f61059b565b6101b86101f03660046112db565b6106ef565b6101b8610203366004611423565b610703565b6101b861076a565b61016f61021e366004611318565b610786565b6101cd610795565b61023e6102393660046114cd565b610823565b60405161017991906115c8565b600a546101959060ff1681565b61016f600b5481565b6101b86108f8565b6101b86102773660046115db565b61090c565b6101b861028a3660046115db565b610932565b6003546040516001600160a01b039091168152602001610179565b6101cd610953565b6101b86102c0366004611635565b610960565b6102cd61096b565b6040516101799190611671565b6101956102e83660046116a3565b6109c1565b6101b86102fb3660046116d6565b6109ef565b6101b861030e36600461173b565b610a4e565b61016f610a8c565b6000818152602081815260408083206001600160a01b03861684529091529020545b92915050565b60006001600160e01b03198216636cdb3d1360e11b148061037457506001600160e01b031982166303a24d0760e21b145b8061033d57506301ffc9a760e01b6001600160e01b031983161461033d565b61039b610aa1565b60096103a782826117d6565b5050565b60606000806000846001146103c5576004600660086103cc565b6005600760095b80546103d790611756565b80601f016020809104026020016040519081016040528092919081815260200182805461040390611756565b80156104505780601f1061042557610100808354040283529160200191610450565b820191906000526020600020905b81548152906001019060200180831161043357829003601f168201915b50505050509250805461046290611756565b80601f016020809104026020016040519081016040528092919081815260200182805461048e90611756565b80156104db5780601f106104b0576101008083540402835291602001916104db565b820191906000526020600020905b8154815290600101906020018083116104be57829003601f168201915b5050505050925080546104ed90611756565b80601f016020809104026020016040519081016040528092919081815260200182805461051990611756565b80156105665780601f1061053b57610100808354040283529160200191610566565b820191906000526020600020905b81548152906001019060200180831161054957829003601f168201915b5050505050925082828260405160200161058293929190611896565b6040516020818303038152906040529350505050919050565b600a5460009060ff16156105df5760405162461bcd60e51b815260206004820152600660248201526514185d5cd95960d21b60448201526064015b60405180910390fd5b6105ed61021e600143611986565b90506000816105390361069c5750600b8054600191600061060d83611999565b919050555061061c338261031b565b1561065a5760405162461bcd60e51b815260206004820152600e60248201526d105b1c9958591e481b5a5b9d195960921b60448201526064016105d6565b610539600b54111561069c5760405162461bcd60e51b815260206004820152600b60248201526a10d85c081c995858da195960aa1b60448201526064016105d6565b6040518281527fd0677e19b514bc18c3927d02127a9663ad4688e03d357b07e30ec3bd6134ae1c9060200160405180910390a16106eb3382600160405180602001604052806000815250610ace565b5090565b6106f7610aa1565b60086103a782826117d6565b336001600160a01b0386168114801590610724575061072286826109c1565b155b156107555760405163711bec9160e11b81526001600160a01b038083166004830152871660248201526044016105d6565b6107628686868686610b2b565b505050505050565b610772610aa1565b600a805460ff19811660ff90911615179055565b600061033d61271083406119b2565b600880546107a290611756565b80601f01602080910402602001604051908101604052809291908181526020018280546107ce90611756565b801561081b5780601f106107f05761010080835404028352916020019161081b565b820191906000526020600020905b8154815290600101906020018083116107fe57829003601f168201915b505050505081565b606081518351146108545781518351604051635b05999160e01b8152600481019290925260248201526044016105d6565b6000835167ffffffffffffffff81111561087057610870611224565b604051908082528060200260200182016040528015610899578160200160208202803683370190505b50905060005b84518110156108f0576020808202860101516108c39060208084028701015161031b565b8282815181106108d5576108d56119d4565b60209081029190910101526108e981611999565b905061089f565b509392505050565b610900610aa1565b61090a6000610b92565b565b610914610aa1565b600461092083826117d6565b50600661092d82826117d6565b505050565b61093a610aa1565b600561094683826117d6565b50600761092d82826117d6565b600980546107a290611756565b6103a7338383610be4565b610973611185565b60005b600a8110156106eb57610998600161098e8343611986565b61021e9190611986565b8282600a81106109aa576109aa6119d4565b6020020152806109b981611999565b915050610976565b6001600160a01b03918216600090815260016020908152604080832093909416825291909152205460ff1690565b336001600160a01b0386168114801590610a105750610a0e86826109c1565b155b15610a415760405163711bec9160e11b81526001600160a01b038083166004830152871660248201526044016105d6565b6107628686868686610c7a565b610a56610aa1565b6001600160a01b038116610a8057604051631e4fbdf760e01b8152600060048201526024016105d6565b610a8981610b92565b50565b6000610a9c61021e600143611986565b905090565b6003546001600160a01b0316331461090a5760405163118cdaa760e01b81523360048201526024016105d6565b6001600160a01b038416610af857604051632bfa23e760e11b8152600060048201526024016105d6565b60408051600180825260208201869052818301908152606082018590526080820190925290610762600087848487610d08565b6001600160a01b038416610b5557604051632bfa23e760e11b8152600060048201526024016105d6565b6001600160a01b038516610b7e57604051626a0d4560e21b8152600060048201526024016105d6565b610b8b8585858585610d08565b5050505050565b600380546001600160a01b038381166001600160a01b0319831681179093556040519116919082907f8be0079c531659141344cd1fd0a4f28419497f9722a3daafe3b4186f6b6457e090600090a35050565b6001600160a01b038216610c0d5760405162ced3e160e81b8152600060048201526024016105d6565b6001600160a01b03838116600081815260016020908152604080832094871680845294825291829020805460ff191686151590811790915591519182527f17307eab39ab6107e8899845ad3d59bd9653f200f220920489ca2b5937696c31910160405180910390a3505050565b6001600160a01b038416610ca457604051632bfa23e760e11b8152600060048201526024016105d6565b6001600160a01b038516610ccd57604051626a0d4560e21b8152600060048201526024016105d6565b60408051600180825260208201869052818301908152606082018590526080820190925290610cff8787848487610d08565b50505050505050565b610d1485858585610d5b565b6001600160a01b03841615610b8b5782513390600103610d4d5760208481015190840151610d46838989858589610f78565b5050610762565b61076281878787878761109c565b8051825114610d8a5781518151604051635b05999160e01b8152600481019290925260248201526044016105d6565b3360005b8351811015610e99576020818102858101820151908501909101516001600160a01b03881615610e41576000828152602081815260408083206001600160a01b038c16845290915290205481811015610e1a576040516303dee4c560e01b81526001600160a01b038a1660048201526024810182905260448101839052606481018490526084016105d6565b6000838152602081815260408083206001600160a01b038d16845290915290209082900390555b6001600160a01b03871615610e86576000828152602081815260408083206001600160a01b038b16845290915281208054839290610e809084906119ea565b90915550505b505080610e9290611999565b9050610d8e565b508251600103610f1a5760208301516000906020840151909150856001600160a01b0316876001600160a01b0316846001600160a01b03167fc3d58168c5ae7397731d063d5bbf3d657854427343f4c083240f7aacaa2d0f628585604051610f0b929190918252602082015260400190565b60405180910390a45050610b8b565b836001600160a01b0316856001600160a01b0316826001600160a01b03167f4a39dc06d4c0dbc64b70af90fd698a233a518aa5d07e595d983b8c0526c8f7fb8686604051610f699291906119fd565b60405180910390a45050505050565b6001600160a01b0384163b156107625760405163f23a6e6160e01b81526001600160a01b0385169063f23a6e6190610fbc9089908990889088908890600401611a2b565b6020604051808303816000875af1925050508015610ff7575060408051601f3d908101601f19168201909252610ff491810190611a70565b60015b611060573d808015611025576040519150601f19603f3d011682016040523d82523d6000602084013e61102a565b606091505b50805160000361105857604051632bfa23e760e11b81526001600160a01b03861660048201526024016105d6565b805181602001fd5b6001600160e01b0319811663f23a6e6160e01b14610cff57604051632bfa23e760e11b81526001600160a01b03861660048201526024016105d6565b6001600160a01b0384163b156107625760405163bc197c8160e01b81526001600160a01b0385169063bc197c81906110e09089908990889088908890600401611a8d565b6020604051808303816000875af192505050801561111b575060408051601f3d908101601f1916820190925261111891810190611a70565b60015b611149573d808015611025576040519150601f19603f3d011682016040523d82523d6000602084013e61102a565b6001600160e01b0319811663bc197c8160e01b14610cff57604051632bfa23e760e11b81526001600160a01b03861660048201526024016105d6565b604051806101400160405280600a906020820280368337509192915050565b80356001600160a01b03811681146111bb57600080fd5b919050565b600080604083850312156111d357600080fd5b6111dc836111a4565b946020939093013593505050565b6001600160e01b031981168114610a8957600080fd5b60006020828403121561121257600080fd5b813561121d816111ea565b9392505050565b634e487b7160e01b600052604160045260246000fd5b604051601f8201601f1916810167ffffffffffffffff8111828210171561126357611263611224565b604052919050565b600082601f83011261127c57600080fd5b813567ffffffffffffffff81111561129657611296611224565b6112a9601f8201601f191660200161123a565b8181528460208386010111156112be57600080fd5b816020850160208301376000918101602001919091529392505050565b6000602082840312156112ed57600080fd5b813567ffffffffffffffff81111561130457600080fd5b6113108482850161126b565b949350505050565b60006020828403121561132a57600080fd5b5035919050565b60005b8381101561134c578181015183820152602001611334565b50506000910152565b6000815180845261136d816020860160208601611331565b601f01601f19169290920160200192915050565b60208152600061121d6020830184611355565b600067ffffffffffffffff8211156113ae576113ae611224565b5060051b60200190565b600082601f8301126113c957600080fd5b813560206113de6113d983611394565b61123a565b82815260059290921b840181019181810190868411156113fd57600080fd5b8286015b848110156114185780358352918301918301611401565b509695505050505050565b600080600080600060a0868803121561143b57600080fd5b611444866111a4565b9450611452602087016111a4565b9350604086013567ffffffffffffffff8082111561146f57600080fd5b61147b89838a016113b8565b9450606088013591508082111561149157600080fd5b61149d89838a016113b8565b935060808801359150808211156114b357600080fd5b506114c08882890161126b565b9150509295509295909350565b600080604083850312156114e057600080fd5b823567ffffffffffffffff808211156114f857600080fd5b818501915085601f83011261150c57600080fd5b8135602061151c6113d983611394565b82815260059290921b8401810191818101908984111561153b57600080fd5b948201945b8386101561156057611551866111a4565b82529482019490820190611540565b9650508601359250508082111561157657600080fd5b50611583858286016113b8565b9150509250929050565b600081518084526020808501945080840160005b838110156115bd578151875295820195908201906001016115a1565b509495945050505050565b60208152600061121d602083018461158d565b600080604083850312156115ee57600080fd5b823567ffffffffffffffff8082111561160657600080fd5b6116128683870161126b565b9350602085013591508082111561162857600080fd5b506115838582860161126b565b6000806040838503121561164857600080fd5b611651836111a4565b91506020830135801515811461166657600080fd5b809150509250929050565b6101408101818360005b600a81101561169a57815183526020928301929091019060010161167b565b50505092915050565b600080604083850312156116b657600080fd5b6116bf836111a4565b91506116cd602084016111a4565b90509250929050565b600080600080600060a086880312156116ee57600080fd5b6116f7866111a4565b9450611705602087016111a4565b93506040860135925060608601359150608086013567ffffffffffffffff81111561172f57600080fd5b6114c08882890161126b565b60006020828403121561174d57600080fd5b61121d826111a4565b600181811c9082168061176a57607f821691505b60208210810361178a57634e487b7160e01b600052602260045260246000fd5b50919050565b601f82111561092d57600081815260208120601f850160051c810160208610156117b75750805b601f850160051c820191505b81811015610762578281556001016117c3565b815167ffffffffffffffff8111156117f0576117f0611224565b611804816117fe8454611756565b84611790565b602080601f83116001811461183957600084156118215750858301515b600019600386901b1c1916600185901b178555610762565b600085815260208120601f198616915b8281101561186857888601518255948401946001909101908401611849565b50858210156118865787850151600019600388901b60f8161c191681555b5050505050600190811b01905550565b7f646174613a6170706c69636174696f6e2f6a736f6e3b757466382c00000000008152607b60f81b601b82015267113730b6b2911d1160c11b601c82015283516000906118ea816024850160208901611331565b61088b60f21b60249184019182018190526e113232b9b1b934b83a34b7b7111d1160891b60268301528551611926816035850160208a01611331565b6035920191820152691134b6b0b3b2911d101160b11b60378201528351611954816041840160208801611331565b61227d60f01b6041929091019182015260430195945050505050565b634e487b7160e01b600052601160045260246000fd5b8181038181111561033d5761033d611970565b6000600182016119ab576119ab611970565b5060010190565b6000826119cf57634e487b7160e01b600052601260045260246000fd5b500690565b634e487b7160e01b600052603260045260246000fd5b8082018082111561033d5761033d611970565b604081526000611a10604083018561158d565b8281036020840152611a22818561158d565b95945050505050565b6001600160a01b03868116825285166020820152604081018490526060810183905260a060808201819052600090611a6590830184611355565b979650505050505050565b600060208284031215611a8257600080fd5b815161121d816111ea565b6001600160a01b0386811682528516602082015260a060408201819052600090611ab99083018661158d565b8281036060840152611acb818661158d565b90508281036080840152611adf8185611355565b9897505050505050505056fea2646970667358221220677848456db473615d870b3f46dae8d446c7c530eb58d5fcf5de5f10c9a9fb5364736f6c63430008140033646174613a696d6167652f6769663b6261736536342c52306c474f446c6869414b4941766674414952657934566679345a687a4964697a59706c7a704a773070312f315a364131352b4331714f4831362b5733726969344e5046375066312f666a322b2f6a322f666e342f5076352f2f76362f667a382f7633382f7637392f2f372b2f2f2f2b2f3431717a71574a32626568346648742b766e332f667a372f7633392f6f686a7a49746d7a34746e7a49786f7a704675304a4e79305a527a305a64333036474431364b46324b7150334b75533236325532375364344c2b723438613035386130364d7537366379383673323936644442374e2f5738654c5a394f5462382b586439655865382b6266394f726a392b766b392f44722b6644742b5048732b7650762b7654792b7633372f346c6b7a596c6c7a4a5a3130356c36314c4b6233724f62344c3670354e664a37396a4d3739724e3865336d2b5072352f594a6279624359337365313538362b362b6a693976627a2f617953334c756c34395849374a6c353161694e32366d503272756d34384374354d69333664664b372f62302b35352f31366d50334c326f354d47753563537835744c45374e7a52386544573875766c392b766d39752f72392f44732b6676372f594e647970467530707438314b614b3271654d327136553375336e392f33382f356c34314b534832726d6a34726d6b344d4776354e6a4d384e335338656a683959706d7a5931717a343972304a567a3035783931712b58334c616534634f76353857793538577a35394844374e544737646e4e372b4858382b5462394f626539657a6d392b376f2b4f2f702b6658792b7662792f5076352f6f746f7a7036413171365633625765344c6566344c65673472326f3438537935736d3436632f4136396e4e384e7a52384e2f5638656e69396672342f7132543362475933734b753574444336395448374e724f372b726c395a4e78306175513237716b3472756d3472796f342f76362f767a372f2f372b2f6f35737a707037315a782b31624f633372716c3472796e354c32703437367134384b7735736933364d6934364d362f3674624a3764664c3774725037397650384e3755384e2f553875666739652f712b5054772b7666312b2f6e342f6637392f762f2f2f3439737a3570353161434331364f48324b5349326157493261694e32713656334b2b57336247593362475a33726167344c6568347269683462796e3462796e34372b72354d437335634b7635634b7635734f7735734f7835733239367458493774664b37747651384e3354384e37543865485938754c5a387566663965726b3965726b392f48732b664c742b6666302f41442f4141414141414141414141414141414141414141414141414141414141414141414141414141414141414141414141414141414141414141414141414141414141414141414141414143482f4330354656464e44515642464d69347741774541414141682b51514648674474414377414141414169414b49416741492f77445849424e49634b4442676767504b6b7a49634b484468684166536f784963614c466968677661737a49636150486a69412f6967784a6371544a6b696850716b7a4a6371584c6c6a42667970784a3831584e6d7835773672535a6b2b664f6e7a3644416833616b366a526f6b69504b6857616c4f6e537030366a5170314b7457724d7131617a5974327174537658723137446768307274616e59733262546f6c31626c713362746e4466796c55626c2b376375336a7a6b74327274792f667633344441783473324b3768776e55524b30374d654c486a773430685035354d75544c687935597a593936737562506e7a354a44677834646d62547030716850633136746d7258723172426679343664576e52743272647a343935746d3766763338426e4377394f664c6a7834723254493165756d2f6e793538366a517a394f665872313639617a5939387576626e3237393744672f386633353038392f506d306174507a373639652f486c34372b6644352f2b2b767632386576507a372b2f662f6e3142666a6667415157754e2b424269616f3449494341736a67677735434b4347434645356f345955594e706a6868687832574f4748486f596f346f67526b6d6a696953694371474b4b47726249596f6b7577766a696a445457754f4b4e4e7361596f34773837756a6a6a3044694b4753514f685a4a5a493947496e6e6b6b6b77324f6553545469595a705a4a55546d6e6c6c56684371615755584762705a5a566467766e6c6c6d534f5765615a59715a7035707068736f6e6d6d3237434b57656362645a4a70357032346e6e6e6e487a753265656665676271353642354567726f6f595969716d69686a436271714b434e5172726f7049395753716d6c6d456161366157626375707070354b474371716d7049373636616d6d6f70727171714b573269717271734c2f47757573723959713636327530716f7272727a32366d75757750363636374443456c7673736259476d3679787944624c724c50514b68767473394e53612b3279324661723762626358757574744f42324b2b363435483572627262686f6c76757575793265363637384b59623737767a306c76767665726d61792b2b2f506272723777413779767776775158624c432b42796338734d494d42347a77776731484c5048454431634d386355555a367a78786878336a4c4848494476386363676b6c3279797943656e504c4c4b4c4c667338736f6f76797a7a7a4454445850504e4f4f64737338557838367a7a7a3041484c66545152426474394e452b49363330306b776e766650545455637439645255563233313156686e72665857584866743964646768793332324753586266625a614b657439747073742b3332323344484c666663644e64743939313435363333336e7a332f2b30333149442f4c666a67684264752b4f47494a363734346f77373358506a6a3063652b4f53514f313635354a5a6672766e6d6e4866752b65656768343635364b4f5854766e70704765657575716d722b3736363744484c767673714e644f2b2b323435363737377262337a7676767741666675764444462b2f373863537a6e727a78797a66762f5050514d782b39394e516a622f3330796d65502f666263642b2f3939395672487a3734354a64762f76586f6e362f2b2b75794c3337373737386376662f72307a322f2f2f66695072332f2b2f506676662f30412f4a384142306a412f6347766741684d6f414944794d41464f724342454879674243644951514e57384949597a4741454e366a42446e4c776778344d6f516848614d45536b764345427a5268436c48497768613645495177664b454d59306a4447647177686a69386f51357a794d4d642b7243485150796845502b44534d51684772474953447969457050497843553673596c51664b49556f306a464b567178696c69386f68617a794d5556656e474c5941796a474c7449786a47617359786f564f455a76376a474e726f786a5842386f787a6a534563327a74474f6438796a48757649527a583663592b41444b51672b306a49502b4a786b49684d7043494c79636844476e4b526b49796b4a42744a5355644f38704b597a47516c4e2f6e49546d72796b35594d4a5368485363705363764b556f76526b4b6b334a796c573673705777564755735a306e4c57714c796c712b55705335747963746339764b587667776d4d496535533245576b356a49504b59796b386c4d597a627a6d63364d4a6a536e7555787056704f61324c796d4e72504a54577432383576654443633478376c4e635a61546e4f6738707a72547955357a74764f64376f776e504f6535546e6e5745356634704b632b38386e2f7a33763663353841745764414279725167684c306f50383061454952797443464f725366454230584244725142416c4d744b4a30736167724a694352595a5268444271596869435151495939744349754639556f584652714165554d59774d635a51784c5577715a6d564c55706a68646155356438676c775a4b4d534973574445755251415a33656c4b5a485461704d6b59705270563645456354495367344d77516f57424c554d61726a4155724e716b687630596866674d414d5056427056707a5431724474314b6c505469746131796b634b704f444152327151433171776f425977754945444e76494a47534142714a6e77424243304370704e704341425945437359714768423456413462434a78594a6979324254526c7a6a43794e4167517171415130346c4f414b4b6d697351344168697355757467556256636750777043427943353247437270515277434956654c2f395441434b30314c57526261345338506f416869314442626c3037584e4d75774245614763596c6369765a516653676f344c51625161514d466a67426b495a4a4867444e44686268387853517770745255594d696b746536634c417251625a4252576151567a7044686531465048424a416142586f4b414177376c335730595a4b43445969523343633867416972716b416f57504b4f377937674763687478586f77592b4c636553514d585a5047487a786268436959344169386551466f66444d5152376732785a4d477767683941774c44747a6139695a5a4253586f534376534b757841787363464b653575454a6445684142444b436946426b56724d6d61454d666e67414d323272417770373977784471594967674e43514e426b36786447754148546c3867776f694541414143494143546669697244335a51536c475951497444396b516a5667494b5949384337455331763842615044474654436768624569685269394741514b2b42414141525441447076494155374e594e672b62446b56766b564e4d4744784278706f424247504a6343575336414b47426869457a4377525277456e41464f515067676e4d6a45477a347741414541346870677666536c7855434a574a446142457859715236756e49777467304158364a30316c7673636a5543726c63783045494e4a3336774953347941424131476968334d48497062614f4c5a436867434350594c4179697757736b444541566146324c6c624c6a36304954346871706c6f416b7470474145705834474a437769677a363441626b5751594e504164466e55326344303569755167614f66515339717355526c5241424941725258324c66675152303245514c6c76486373697743346237775341305377475653794745644739694449536a4f6a4465384f79654c506e536c59314274574177414339582f4a6e6c3051524341417541414754326c785a79316a4f675a34447666574367417233663834554f51756451444f4c576c643146754d42796243755a5161316b326749644e6f774c6f47666930564c6277427a6a386f75452f4b4d57655334414969527769787a4f414e346370516570433844776f4f6b42337653557442444f336e6531646d4d73367549414253537542496a43777439514a51766372734c67685a67434441425477695966497439517a32477446706745436462646b41587757672b4b6675756368484b4b744f7a4132427141774259637749514e4f614452306832414352596845417977504f705574736749433050624a677668414d3054726b4930505152736d4c6b6a727758414f2f397158394f56517947335a6f494471586951524a6a644147694279446857414141454e6f456763324c423569524d68394b74586944684345514241394549694f456a422f776349372f55442b506b4b6a366a494c534c762b3367334177436951414f33442b34453551386b443933665266514e496f63694f4945514345454d3677634c776c4151585742794b62423867496346784d634f33465943424e4147707164614e70414649444143635363533354594b647741484e486432456745466254414c365364386f34594142616439524841434f32425479315941643563515a6f42754b6441434a4865444c6e4344534c434348695a3332694274336a4148556b454e73444147745255556d6f41424d4a6861547245494a7a4234596863553265426e4e475959555241434c734257647245444273426e39726352566142364572454b664a5945464f415141586341436d67575078414949354239473345494169646b634142544530463333334347535145454c434237634668374a4842726b7a6346575641454b5a6865496943425366467757464343572f2b49414145674349504962516a77685139524474685759683442695a726f6553636f6149736f66716b5168614d4667562f516342304669574a34456150774163705167457a684258333463654a56684872494534636e65554968436d3934454477416762564145597051416a7247464d385141472f51656247495a5358516537466c666c486e666d33775a59443441533851557766686874666f655734516958766e41575577424f515846517a416462666f4b6d6341656e5877636f41485773714945486f51694e66675a4262524338446f67416e42445a4a414243326f455665496179777841374477676e2b6e455864776757443267467a326a524251433279516a505659424c3867456e4a6f673256585643486f422f724845485333684f70586478763259516a41445a4f34426e496f65676b7843776d3469655058556e634961784678634c5067427754494561436e4156372f3448556d4234437146595a3045487766535166473978424a4d4a42314235415441516e6457416c76396f43546b475a724d4747355678434d34482f6243492b3979482b7938483973705a494a615241573648695861476a55674a456c6b516f6e42344c4139577242774242545147395a6f4a5a4b4759466d6834595261476346635956576b4a516a6d5a507151515937575a4c493049626d53496c4246327347535771306478417634497244646847476749584834424a5a6b41484e6834794f53426672523473504d5a4d6f7152444c5667656f61486749734153686b516446714136693447635a534a51693047514b655154747835656d526c53446d51436d6d525143715968713167787265424637566756735651596f6d497254494156577959533053594a70635867514357704871585233646743414d4a6f4f73514c4b68325850435836426d47796453597531734141342f77574d7358674149536d534171414e4c706b575a47434a3251682f6f4a434b6d4c6b533052614e616c45444962426c504c6b514446694d52584634554d675567304346616d6149552b6565654e46364a4443424346475261395675415a414c39585551772b683638656c59664143542f6a674353466b536e4741436d564142496c695469566b4358776d61456369674278454754724364734264584851454f7149414846594144543567417a6c6837476d6d586656426b635869526177414a783855516b666d5a4257454f56664362792f6d4969456d6b7347414b446d414c41504355795456715a536d666f716b514874694d484545496e466d4b3830674b68726159617a6c7445516c76584d4141334d6956614a6749564e6d4e2b776c2b4f48716446686f52366a69564a734639304264667a6c65594162686e2f6c6b514c5642684d62425742386d6267766f45666a6c61582f2b5168666942695330356e6356706a43336e706a716c6f482f59415952516d7a396171437578436a4435436370676a63715a466c4e6f6f475a46686c7961464b7067616e676169384441434f6434664c5a3441594135654f765746486f356d662f5a6a53346162363657414668335578694b714d2f6f6a6363336c46716170655341626c4641724770426363784a6d6963336c4d6948724c4c6d5843394a5a54337742594d6e6e54426e69712b4b646a43616c47576d693553586e6c75346c35524b4255653468783434715365786d765a7057374b3670697867444b50316d50773570585949616d54516c4d6f6d723330786f4267496d6758676e623734644946616f7339617247655145662b34456b7a6742705a516767354a73474f496b4242426946773272684c416f6f326f5a6758706f52787145455159416f6d6e6f78734a6e576261456363594169727170456171456c332f6141337269624a565742457a754155597958454d32613834795a314f5941654479415855703741736f5a5451554661742b4a4f304b5152636b4a6c646c5a7a4a5a51427353705632774936736c35596465333071554b6f696f5a31714f524b3765586b676351506f4a70357057774a4b7178366e414b685469596d68514c5749694b302f6d6d305879684f4e2b5971647971736d41514e2b4b6735434270756179616c6d49614d44344c4e326d615661756730545368656f655a5567746f70497361736f536741422b78465461486b3571357368594b796c415154424f564d326570356c345731632b7733414a37414f4961313775784250693771757347744a52784d7975676d4542616d6167493236576e6369734c566d4f524b2f754c67365a62555543725558735875785736786f4f37723147625238355771763978452b304b644e366845616f49614973517546693146472f3843506270554c6655616a4852454d5a66617259704368325273526d3343794a6245424b6943764868755851586d69417145456b7741417a394350737475695369716a384b5553416b7873675669482b62696a576b743945646352655a6531726c6d7a4a51474a6c6e426e6441656c6c43656257736b47324343394247476c2b7965376f57753062386f4731556b547376696c614c6d6e6431683355376f4b697143734764462f454277526151436e534c5541456b796e634543502b61686b6b6b695a43786d2f3644754375636f524f724237697841534e4143696931476673566241472b7535316c746d4a3879596941755a727a6d726459472b567a6b514d5a436972476935366363496e4341494f67634e532b775572526f4c536d41473565414a483457384a37454574637133493179716d4e73544869753657767974556e4746667278557a42434a3576414a4f58414f342f3877427366477275783273443578714b54347567457156772f77413333466a4746777842386d72743178446953676e6936626d785052432f745762796a5876756d4b726e53784157566d4248426341334b6373726462467377626e787851786f65676f454e61472f5161776f6242594450674171556c43463233556778776163756c414a7341736d504d745957426e33335141694432426f5548455746596665654c7461634973524b72774361687733386f4450516d796a484a63692b6d4141566d414c487757537651426573774553784b6b344351593272337367514d762f79336d6b547766586b4a7a674a786545525179392f63674b587369675274732b6c6d417068316661574777644b486f4d6a584232394c6c614358592b71737a696467595658514354374d66353463453154586c69564d77764646427448476469414b696c664c426c39737731686241417a4e3043622f683330615959484a6b4e477073463759745178747471677051625978476d5230574b3438697744485a6d6f756f4d6f595562456158434653536753625a7268736a486863624b364869525239793638486e5964564b7733666d495a4d76614a2b5267312f4e51307a707745735059536d31676b326f4d694568734d724d626c4b5661474f43385a623749755136484b4d3051766f584c592b735a7651504c714153674f4b454d656d4541596732525931454d6f313970347247525639484a376d686d307630494f784749676e674c386e515744664f49434836484367616d5a58454952775562776b47637a2b78774b4c63414f74725164746e4e43642b634a6e445947624e386e3079623865764b2f416f463479336148333664704a7741494368676c6a6e5a456c69786a6e6f497164694d333636626f52596464516152447271364556386237417a52454361595a43614a5a322f307a52466e454e485074686548423930797250414b7943413279793575745961327438536469794162326c50756f52596c7130486c796b514f6b5346477a4247414452597a6a514837315849327170547762432b2b794b7072326d33417354644432384469444e49646f526a42414633556839434179734e53796663536f514d6c6666646a72454835617932686f5465677259396a316e4c4142623234794d6d5a714b66503059492b707037435a70357378586d723133572f32336554706b496e5545542f446a3536626236493271365158457a6f797972686f555876414d3361434670587a486d64757965777957696e6e5637466c713251446833767753685379634a756a496248697a6751446b517336414247445335516e495a4133655455454d334d7a564b764545664b42645156376d642b344838386b59544a654a7535324c472b484b366f6f554e6e414673743275372f38614159314a4150513145372f7345755834415671773234766f712f3961466b58707270507833524e4a45622f415a395662304741757150736f35773052337962524363564e42614b775761777558507637332b647341707a7334586f2b7465673973676a7841746c4e6b66723870304b676f61692b36306c37656e6158566964353643467873352f72414b786458334a6f353637653671337572562b77316b494c31494d5a4341773832774374457561415964542b3674542b6844494c35516b5236552b7134532f4e34546256627a6674745670363744496831454b386f43477836465164346f7a374745557036786f2b70354478673763473459494d3469334d33614778677954395737365879784f3943674e4f316c2f3659517934716d59526d745a706549384e46772f65464b615178757457355342586435635175516d4f37326f68324c644275674177366d5072426d762f624d6b4f4477722f377456764472755654755373437153514551564b79386a482f50432b68357836713576745063564d696457706652452f514d636474664550634d75456273564b4f7138385039645748527070642f53324259475574656d68432b4153776530416a78467a71664c2f724c6c5150704d6544524b4e45417561446e762b7572456d7968447832486a416a424169652f554c45517a4e7661464a4c384c564e2b78364865782b50355a43304c4130753938703064394d54476b54547842764b65494d6765414a504141506935556669385147734d6c362f6174386238497a7a3363497170434d72317051372b36734f4f487a33734d635764623162766d4774775743494e3871364e497a4a514e3374666362484e6b74624f69556f62674e482b56656278656f6d5a3766325057542f6f684762742b2f586f3262542f68347157797343643349304b7033375857422f302b724864367658426647616b723475443931626165376a7a7a49492f486c4b432b463639374337302f4a35333334562f7966676e64375847345737646241527734516854774d6649574d6f45466b77555945674e49425955456f71476f38704468773352634147596856664f6a446841417848413853335041783545694f57574963713767694142554f48487655435642696a3069634255654b65746b677034566248327269454a6d49774142624658516d37414e416b71454c4b4639354850446d6b64534f4761704f77647231703965765964643858544a6b784b2b77473534416f4f4d70375451324a737a49704f4b6b446a71794959797745347577527967366a4d594f7267677067524134506a6d75416d4543456d4843656b706b3543457944427373616237615751454b3873394449376239724948787a53552f757a674b4d34415a546467396b317a6e2f574f75372f396e777132745763436430324f5779723348346f6a46706b6f787573613969497768644974536967775741724942753435567945634b3542434f45413442413177664e6e2f752b7771424c4247364d797243356755453630344753666a4a784d436d6c4657686639376c522f6e742f424a514c3663556e426741466d46366b77454541614b41724a41416a6f4a7174636b456359413049707a59433844754f67534c51357a417751434459466a364d426733424e68774b52594e326b514553555a726353415951694167462f69366d734b6c47614b36445a675271726b517242632b714d3148466d30527741303163444c6977454d636174454f416534435377633371486e6752316745416d334541676959734d55462b57686f4d794e373465334c4e6f674363536c69546744674f41424a5365613944316b597749517a704a726973466b386b776d426f664a54305a484e436c442f73794d53464668757876484d556f49694c6f79387755514b515a4a534a45636d34776253777472545a73327551754e454b685579456a5455505266354543774656503070697a304a5151375651672f4b6849412f46684273526b324567754772475a7844386b316b6b38334a45456e37366b3849504956544349515663647441546c524d79584578507a5479384c4e5a3269416c72476d46444244526f6d445a4372644c3744726c707a74455747432f734b49496b743765776a565174587a376747574a62584672726f307a695531543254562b61432b614a7237314b785145767a3345324d39386b444f517833726267672b476273337171476c754571374955536d694a5458594b74786f73427042594b595234617067793958314d67776a594a7a514d576c49546730516f597a43446a74683159714b46534a516836326c69636b4f4b3532504f58387868717747506c51492f3634694c50663077634d46426769675234544446767548514c79655a75745849356942694437436b494e55767778686535594e51445849457a707152646376485372426f49694a41417a574432334a57716750484448747741614d51754343614468644175486d71564e452f4e453536494d504345557361616f3875772f7934596771525459505373553743714f4e456879555352745952494f633031535257686c5a5a6e4e4e43336135384f586f526261696e4344534a5576306661724a526867586179794f757538487a524879524252597a46314b6268423469523755525567346b4a7431316f7a6f4478454f5141547a67746270426b62586c783269394f32686270586e6868766d59596e44516c436b7853565171616e7751546c6c4a634d4c33652f4368494832455a4169636a6a4248786246496c365144774537514255434d2f61515265515059462b686c5a6a4539762f424e7a5641426b686f6f49477152413144334b34377676674f436a4b78694745304941324d494555632b4541486232794a4c4355457844513041594e4e6245454230776d63772b515167315330775541343145586443674d446262534844556642516735704f417441544445757a786a4541776d7a4e674f354542302b384959676b6b64464931534242577138424279574d614a397053554a64336944414c783267466d5141676a4c5767692f634249446a495243426a76517a41796873445147484b386a554b67466f557949685475414133336b496751562f6d42434f6b446a4254547744523661643864726b41463646597543766f34794170567359424643564e63556739514e43725a45693065514165536d7349424c6c7138614c6a43454c7253526744424643786b623249514b446c63434c5541426266794a496f4f386470717441564948756d676747444b784246502f6c4f475142354f574c6462697463625977515637772b413162486755495a5241464c4e67497a75626b555677376d38344c34684768727847684255556f687a634d6c41713558674856627768544f424d674231576f596634445565677454434649324c5969363635544171396359515a343841414a736a4242353534676665496b4165634b65306f6c774a6853667553426b4a6f5142554c4d4f684b78616c43753646556f4b694968514541515949435a4d6b324264514a475a31784f4843694d684e584538734f727546536c624a306f693036517774596d74535745744957534558716d42625a556c627351526854785770586f6672564976346b4631526c4b6569366373684a3155634d6b3641704947796130784d6f38316951616b513276757253544f67776252547778564f39696861634a4f4b6f5868336c53473477574b707559514f6d574956662f656f576c4277322f366c443555676e4e4a4333434e6e7868697959692b7138656f647a764f3675536b32494654787a524442636f5151536a4b7670734f4a4c783062316432536c37576876563437504768526f574e4d43566d45616f747932314c52596b634d6762727261315a5950467a48454353513241557a6b746b45534a7241457a563756416c51576471386d545270337257574f4a4869444548695951555070643149706c4b4b586873426f44384a32337537474e3454776e6138697255586637354942442b4d394244444549392b513168652f487878776741486345562f306b6775364b4d4d6e584846674345666746446677525132495975446d326a664447433777584c3272596546734e416f744b415344332b61775473786776377830634864376b41504e52466a473236587868336c7159787a582b4d59367a6e47506566786a487764357830496d3870434e5847516b412f6e495366396d386f79643347516f50316e4b556162796c4b31635a5378665763745a586a4b58752f786c4c34645a7957496d38356a4e58475930672f6e4d616b377a6c743363356a66484763357a6c6e4f643658786e4f2b635a7a3276654d3576393347644138316e51675362306e77647436454c725764474a586e536a4766316f5230636130704f574e4b55746665684c5a7872546d395a3070784874615642584f74536a466e577053583171564b656130353957646174583757705978317257707162317247316461317a666d74577635725775642b317259503961324d484f6462474a6257786b4831765a795762327348767437475648473972546c6e6131725833745a6d6362323976574e7265392f6578766878766334785a3374387474626e536657393370586e6537795533746437746233764f6d4e3776726657393734317666386562337676304e37337a2f572b41424a2f6a2f7750734e63495162504f454856336a4447653577694264633468476e654d55747676434c5a317a6a47353934787a6d4f635a422f2f4f45694a336e4a2b31774445716438764374586563745a2f6e4b5878787a6d4d3564357a576c2b6335766e484f633731336e506563377a744870633643596e65536b554541704b554f486f53562b3630704875644b592f76656c546c3372566f33353171476564366c6a6675746174376e5775663733725978643732634e2b647243447657416a447a6e626954353075432f516478326d2b397a74376a47384236487565642b3733752f756437372f76652b4446337a6834333734747964653857356e2f4f49522f336a48513137796b5738373553742f6563746e58764f626e337a6e4f592f35786f502b3836456666656c4e6633725070353730713064393630582f65746572587661786e33337457512f3732394e6539376e6e766531392f3739373450382b2b4d50485066474e66337a6b43372f347930392b383376502f4f6372582f724f702f373071332f39364763662b396266507665393333337451782f3834522f2f393831662f764f6e6e2f7a7252332f377865392b2b4b74662f752b50662f335a542f2f377a312f2f3975642f2f2f326666774438762f30625141456b774149387741444550774e4551415a6377415a38774153455141655577416d73774169385141724d514158555141363051412f637741344d5151775551524c3851424d457752457351525663515259385152644d5152687351526d6351527038775271387752684551527645515237637752373877527a305153416351694973776941385169464d51694e6351695a735168313051696855776969637769656b51696d3077697645516932737769337377697a6b5169384d517a4155517a4c38776a4938777a4530517a5263517a5a73512f386b64454d34564d4d346e4d4d336c454d3676454d387a454d3933454d3735454d2f544d4d2f444d512b72454e434645524450455245544552465845524762455248424d52426a4d52486e45524b7245524c7645524d7a45524e3345524f374552502f455251444556524845564a4a45565450455655544556565845565762455658664556596a45565a6e45566172455662764556637a45566433455665374556662f45566744455a6848455a694c4d5a534e4d5a6a54455a4958455a6b62455a6e4c45526d684d5a6e6e455a7172455a7276455a737a455a7433455a7537455a6c2f455a7644456478484564794c45647a504d646f5245647058456477624564315a4d64306a4d64336e45643672456437764564387a456433334564393745642f2f4565414445682b484569424c4569445045683452456835544569466245694866456949584d69496c45694b4a45694c6e456a2f687354496a4e52496a7578496a2f7a496a51544a6b42524a6b697a4a697a784a6b30784a6c567a4a6968784a6c6d784a6c497a4a6c34524a6d70784a6d37784a6e4a524a6e63784a6e75784a6e36784a6c77544b6e78784b6f697a4b6e54784b6f30784b7046784b7057784b7033784b6f59784b714a784b7171784b7072784b7138784b724e784b7265784b722f7a4b6f41524c7352784c7375524b7379784c7444784c7455784c746c784c7432784c7549784c755a544b734b7a4c7562784c7573524c7664784c766e784c762b784c7750784c7751784d7768784d7779784d7844784d7855784d786c784d7832784d7948784d7959784d7970784d7936784d7a4c784d7a63784d7a74784d7a2b784d3050784d3063784c3067784e307a784e3142784e3155784e316c784e3137544c306f544e3170784e3261784e3272784e334d7a4e3139784e3234784e3366784e3441784f3274346354754573547549385474394d54754e637a74356b547556305475694d547553637a75617354756d3854757a4d5475726354757438547533385475384d542f4163542f4973542b3438542f487354764e63542f5673542f5a387a2f5345542f6d63542f7045542f74307a2f6a4d7a2f7263542f7a6b542f2f7354774439547748567a77416c3041453955414e4e5541526430414a6c554164745541683955416c563041696c30416d395541764e55417a643041726c55412f7455424439554248563042416c3052453955524e4e5552526430524a6c555264745552683955526c563052696c3066753830526e4e55527a64555276745552333930526f465569454e556949645569503130534a4630694e645569567455695a3930695431735941414143483542415565414141414c4259434e6746554142344141416839414e6367453068776f4d474343413871544d68776f634f474542394b6e456a785663574c486a4271744c697859385350486b4f4b484d6d52704d6d544b4547714c4d6b797063754d4c57472b58456c7a5a6b32624f4758717a486d545a302b6651486347486670544b4e476a534a4d715863713071644f6e554b4e4b4c55703171745772574931717a626f315a745776584c7547485575324c4e697a5a744f69586173325a30414149666b454252344148674173466749324151384148514141434b6f41505167634b42414377594d444b3067687851476842776350397552355169644268494d62384d5178674771414141415a486d4345776d725548546766455678302b5044556751416857525a4d4e6343697a49634b5149715532536f55415a5533485969433253416f6c5a6f72575172566166526e556f644c592f4938616e4d715536744173526256326c53715570395a76784c742b685268314a314b367a67315730454368464946416d4349777348746849656d377168364539646a6d77523256756c7879794377716757474557756f59755643775173514955427543316c67514141682b5151464867415941437771416a634245774164414141492f7741784342546f705559755769787177626a68594b424444484d5168527078414d55624532333650414832454f4b575033422b395167693455637046414a4b49484a344155716257593836346e67444149474f67593363745045466f614f4658686c665442436f36414d424573453651675130494573456f69454166434430796965576d7351497169696755756b446c416b65344c544253494c53553163457344436d314f654d4162414f745832344a6b6573443448457a695559544e5a4c53484d626b5a72685168514b51596a597a6957464d574d63557352364269594c6246655741675a3041646e4c556b5a6146734d34442f5441774c466530554657484c307047714968754445496268473069304a62594837596a4a4a67345a6252456a68754578686771774b4546453767436d7372413453414b4773715a426e67687170584251475165707a717857755850675479436a7955632b4a504c386d6a6566326876734d686a59753154446b617871505841684567624e4b564d776a516e784a586c414465416269453570555076555452516947364a434c484261676473385a634151454149666b4542523441546741735141493341524d4148514141435038416e516755474f6d544443535637475479424f54437749644f6247676f415167424845422f68745178464154696e454e30334d7877314554436730535550766770464f46684a79496e646b6941754d464f67414a4b426f494b4e4f5246413467436462674a6f4f414251524d4551724145577345496754383867686f494941424f53342b44424c544251624246786867516744713549325372546878374f4968746f414c41675131697864345941574a42686267303230356967766673696a594a46754746784d4351706b736f46477a36515148764451523071377067456e5a776a6873306b724167516751543562356e4d77536f5577503077305644333841314c664346694147475741656c6538526b45426b7338507755323268716968354f4550554249496b6a377949445645736f52445641624c6b6c32416879554348543077574d316d705343534d6f487856526a773942414f53445943554d50683247486a4269695965426a675268694d4f41695277666e6c772f7a564e5a3536594566314255516875536d47444a496832733155416e4d2b42426941756366484b586152644d594546634151454149666b4542567341617741735677493341524d414841414142382b41613273536842314e68596351686f68726153774a594a4353574a4f534e59306a41774761424a796451674b665857746d6d536b744d533670713143705241672b486d5644436a3243743767554443564c464774524931613477343049595636444c305671784c64425967593774777450794d326b5879374f4d32515831773561734c6b57313967774575584445426f48614f6e444e43597437376c564a446a307430776b523044357952686b654d7648413057424d2f386d4a416c4270554643465343322f4d4d476f6b78434c674b7553456d595963434a4b6639714548466970456b2b6852384774426a347273494354545051305a7553425141424a52773733556a595973534b48784e37354568544c6841414f773d3d646174613a696d6167652f6769663b6261736536342c52306c474f446c6869414b494176665241495a677a5968697a6f4e64796f6c6b7a3456667a4964687a6f4a62796f52657a495265796f5666796f5a68793464687a59646a7a49686a7a6f31717a70563030705a31314a643330356c363036654e324b7953334d693236644843374e5047376566653965726a392b7a6e392f58782b2f6a322f5076352f667a362f6633382f762f2f2f34746e30493571305a703631722b71354e2f5638656667394d61313539664b384d43733559566779354275304b7151327175513362435833624b5a333847743573753636632f41362b3770392f66302b76372b2f71694e334d4f7735734f78357379383638323936746e4f3739765138634b76357371363659786e304a46763061614c3236654c334c5765344d7938366f64697a596c6b7a6f6c6c7a59706c7a6f706d7a59746e7a6f3170304a4a77305a783931702b42324b6d4f32363655334c656834626969344c756d3472326f354d322b36394c4437647650384f4457382b4859382b5864394f6a683975766b397537702b6644722b6648742b66627a2b2f6a302f766a312f5072332f6f5a687a5a46753070782b31615349324b79543237696934636932364e7a52384f4858382f54782b6672342f6f686b7a49786f7a6f39737a356834314b434331364b46324b53473261574932724b623362716b3437327034372b713573577935393352382f7a372f7369333538322b36646e4d384935723049397330704a7730354e783035527a30706835314a7037314a364131714344324b4745324b4f463271574a3261694d32712b5733724f6333375764344c796e34384373354d4f7835386130364d713436396a4d373937543874375538655061382b5062395050762b7658792b596c6a7a6f786f7a354275305a4675314a567a314a6833315a6c35315a2b4231374b6133726166344c716c3473693336636d34364d6d343664584937656e69396f4261795964697a70743731707839316236713563577a35386d34367371353664624a37764c762b506e322f6f56657a495a667a596c6b7a493571304a4274304a467430355a313035312b3135352f31714b47324b4f46324b614c3261654d32367552327243583372475a3362656733376d6a3472756c347375363638793836644c45374e33523875666639666e332f67442f414141414141414141414141414141414141414141414141414141414141414141414141414141414141414141414141414141414141414141414141414141414141414141414141414141414141414141414141414141414141414141414141414141414141414141414141414141414141414141414141414141414141414141414141414141414141414141414141414141414141414141414141414141414141414141414141414141414141414141414141414141414143482f4330354656464e44515642464d69347741774541414141682b51514648674452414377414141414169414b49416741492f77414e4242417751434242677755484a6a796f454b48446868415a536c7849386546456978556a5a72796f456150486a6941356974784938754e496b795644706a79704571584c6c6a425a796c784a382b564d6d7a566a35727970453666506e6b42354374314a394f64514141634b454543716c4f6e5370452b62516e564b646170567156696a617132616c65765771312b376776564b6471785a73576a44716932626c75336173322f62776e564c6436356475586a6a367132626c2b2f6575332f3741765a4c654c4268775967444b7936632b476a516f6f2b4e516e5a4d65624a6c795a676a613636636d66506d79353837672f5a4d657252703061684471323538654846727871355a7934354e473762743137686e3339616475336276336235354377394f484c6a78333868546c315a2b656e587a3563365a5334394f486272313539696e583965657658723337636d4c682f382f507079382b504c6a30364e66663736392b666671336365487a35362b664f3734766563487a2f2b372f2f332f36536467667741574f4743414242356f33344c7a4e566966672f6446794f434446456f4934595157566f6a6868686369364b4742435962346f59496b69676a6969436157694f4b4b4a3762596f5959765a69676a687a44574f474f4d4e4e356f593434383475696a69796b4779614b4b514134705a4a464945716e6b6b557361365753504f2f366f3435525155696c6c6c566865715757555846715a4a4a4e6750746e6b6c324b475365615a59365a707070706574706c6c6c322b3675615763634d345a35353132356f6e6d6d6e7957366565656637494a364b434346746f6e6e6e556d5375656969444b7170364f4b4e6972706f346361476d696c6d4636714b61475a63727170705a354f47696d6c704935714b71536f6970707171617547437571726e634c2f2b6d6d73744d35717136753171716f7271377565326d7572775034714c4b2b33796f707273626b61713279797a434c72374c432b45687674744d464b57793231304636726262504864727673733939367932323435474a726262626f6e7175757565787575363637346f493737727a7931687676766558612b3236363766494c37372f2b42727a7677506a535737432b42756437384d494b4e397776775142444c504444464564633863514f4936777877776c3376484847484673734d73596b53327a79785365506e4c4c484962634d38737373772f78787a436a58724c4c4e4a654f383873343675307a7a7a454437484c544d5168664e3838314935357a3030556f337a665451507873644e64465554323331306a316a7262585457584f3939644e5351793132324752585062625a5871634e39746464723631323233436a4c6666565a644d3939396c32782f303232337a762f2b3233323444586a6666676768642b742b463539783234346e6f762f6e666a6b42387565654b49457a3635355a5137726e6e6b6a7a5075656565675979353635615266586e726d6e472f2b75657168702b37363671655062767273714d7465652b75773534373737717a3348767676744e73755050433342382f373638667237727679794139762f505046522b2b38394d6c5876377a317a5766505050545464302b383939782f6a2f33323435642f2f666e6155782f2b2b757133443737373571655050766e7a78302b2f2b4f792f727a2f2b384f64762f2f2f31433644384275692f417662766750737a5941494a434541474376422b4547796741766d3377417053384949506c4b41474d3868424232495167522b3034415248434d494f52744345472f54674355504951684b4b73495177664f454b5a35684347714c776869324d5951356c754d4d65347443474b7179684550392f71454d582b724349534f5168455a63595243594338596c4a504b49536f326a454b6a6278696c423034684378754555725476474c5567796a46377449526932616b597467484b4d6171636a474e4b4c786a566d4559786e6c654d59317576474f596d7a6a484f5049787a33367359353674474d6538536a4951744c786b483045704349524763684745744b52672f776a4978655a79456c61307043507a47516b4d626e4a533071796b7144384a435135536370526d6c4b546c42526c4b6c66705356536573704f756a43557356646e4b576f61536c6157555a53356e7563746532704b57742f776c4c6c2f705331305338356a42544359776c7a6e4d5a7649536d633830706a535a4b6378714b744f5a7859796d4e72504a5457745338357265784f59336f646e4e615a5a7a6d2b464d4a7a6a584f55357a6b764f64376f786e4f3955355433614b5535376e7a43633830576e2f54337265303538413761632b38626e5067664b7a6e676a397030414c796c43434f765367436b316f5143573630496361394b494e68656845493872526a586f556f78624e4b456731577447505576536b48523270536b584b30704357394b556f4e576c4b573072536d713455706a504e71557833656c4f623072536e514f567054484571564a30473161552b526170526838725570546f3171564139616c522f5774537145765771545a327155716d365661772b316174577a61705578387056725972317246394661316937616c6179736a577463463272584d4871317261577461357870617461395a7258752f723172582b314b312f6e7574664341766177676b31735878644c574d594f46712b426853786948577659786c7232735a484e3747513157316e4d5576617a697557735a454f375763396574724f6f4c533170567a766131703457744b614e7257686e713172582f386f5774716c394c5774707539766138686133774e58746258744c584e735756376935486135796b2f7662357672327563774e376e4b6c36397a6a51746534314d30756372574c3365703239377262446539307852746436357233752b636c4c33664c4f3137307574653738473076652b6537587644614e37333372613936397976662f4d59587677445762332f35533938412f2f65392f6832776767753834415162324d45495a72434542547a68423173347768676d4d495533724f454c482f6a44454f357767305663345179482b4d51654872474b53387869464a73347854446d3849706c444f4959312f6a464e4d34786958574d34787637324d553744764b4d6866786a477750357943306d4d6f2b5433474d6b4e356e4a554636796c49314d3553646257636c5948724b576933786c4a334d357931454773356648584f557662336e4b5a785a7a6d636e63355457484f662f4e6344617a6d39744d5a7a5848476331766c6e4f6432577a6e504f50357a33505773364435664f632b4133725067535a306f7631733645595847744751486a536a487a33705369733630706557394b45743757684e657a72546f4f593070546364616b77763274536b376e5371556633705537643631614b4f64616c665465745a6a317256754c343171323374616c334c4f74652f336e57766877337259675062324d4a4f647132447a57786b4e357659793161327235314e62576a7a57747257667661306a3531746248733732747a6574726a4266573179647a7663326b353375646439626e5a5865397a764e76653333593375654e75373375334f39377a566a57393439317665414b65337677664f37333062504f44362f7665394353377768446438345157504f4d51666a7643444d317a68474c6534777a657538596c6e584f496372376a494c3035796b4a656334696a2f442f6e4a502b37786a6f3963355361506563746c446e4f5870337a6d4f4764357a563975633571762f4f632b35376e516236357a6f4f6538353067666574435076765364452f3370546d2b3630597575394b52446e656c59702f72567138373171587464366d44667574696a6e7657766c3733725a4566373264657539625350336570686237765a33553533754e7464376e47662b393366726e6138733133766665653734504e4f2b4c3848767536484e377a692f59373477652b3938497748764f4d54542f6e4a537a37796b482b38356975662b63347666764f5762377a6e4d6639357a6f4e65394b565050656c52622f7257582f37316f7a2b39374630662b397172667661687837337456772f37334e4e65393766666665395a372f7669432f2f347754632b38482f50652b5133582f6e4d682f3777702b2f383555752f2b74685050764733622f3373502f2f373351392f2f2f533954333374692f2f363579652f2b73302f2f765337482f7a72353337373531392b2b4c4d662f665358662f3333482f2f33342f2f6d49574145534e41414154694161574741416e67575a6a41454a3241424468674a54384145726d41584255694143586941466f69417468454253364159477069426777474346546943462b6942496c6943487967585a5341484f6f47434a386759545041454a4341444469674c6b41414c53744161493341456a65454c4e6e414d6a2f4145763943425362454c4f5a67564b6569434a4a69455450694352624345546c6765447641434575415845654143466141445653414a55434342464369444d5341446c50414948506758554169466c6955424673414761384347576443474f7a414a444e41515474414d57414348623467464f41414b467645437137414a724d41474e4c674b577a4144475a41434f3667524a48414a65496948632f2b5145597a41427a7667686e426f43676d6747552b674155394145386e41694a5434695a59414344623441443967455a4d776959313468353649696e6d3442705949453457414171795969725059696f2b6f456e6d77425755594568465142617349696e643441586e514167355145372b414178726742526d7741375667687962774261766743472f774179367743444b4242686c4141554c52416866774259616f42563341425a6b774261384142315a5144416b684361326f697258596a704167414c4277416579346a7533346869685143416e6841444a516a36786f41587377444b4741414a2b78416b4a41416869774153777745345741436f5659416d2b34415a7a4142576e4168794468414a475142594359435a6a67425a79774353664167687352425663416a4c525941644d6f57693251436c3367415342514178357044453067676a3934425737516b7177674357662f30416c55305973627341584a4d416f3865496d433841522f69414651634a4a4f3451535149414e65304a496677415977454946665551675530414e61594a4e715149554c674274573041664e55497076385175506b414d61344a527241414e4441416b4d2b41655a414968716341677167425841734a526655414d744b5970706d5a6552514151622b51456751416c497952624545416d314d415a32715145356b415a71715a6679574a4e686b4a414b324a5a5451415a754d5a4d30344a51574d415633594170706341506443415a47475164763851675a4141624e494a56433651756b755145575141456d4d41523449514d315941464a41426837414a46717341684d5141672b36414f4169414b624941564d67515748575173396f4a6e4b73415967594175546b41796e4d41576f514a4e2b69514d4430514b4543513159365a794c47515765575a724c6559744a6351624a2f39434e64736b4a713443637a746d5972786b496a55454261316957546a6b42654c4549344167446875414a6c4e6b454f51414748314146374e6b567362674a4d6f4149677643454435434c54776d585850454854736d5348654358454f7167494843506a6b5548427a6d6876664152456243535046434644794542624541444f35434969676747586b414667646b51707241424531714f4b7a454d4b2b6b4349326755704a414233326b545557414c4c666f515535674a4e59414664634152783843534643716b42796b444b596f537a6243636548434a4633476745466b4b41756b526b4d414a4f316f5471384353655543454341476c66654148677941534d47414c5833414d42616f52544d43556273414a7954415845744355583443444c6a476d6d34434f4539454938486b484263454578506b485139675161744142476b435265336f474e6b6f456c436b51446b4363485039416a426978416a63416b634767455837516b6a6b7768784968437165774352785170447678416a6451415468416e6830416d53507841426e414369307770666b34435659716e44774b6e4a4e5a455644416f63565945587a674156376742796b67425872677138424b42564b5171314867704a426c71416c61466e694b425236366b376b366f684e49466c4d4144634770414143366b6b694b46334767436177516b3773524359623541535351453739516c69654171566b52444d397770567068426e574a6f6d637841514a36713759707145374146696b51426f396767574f78704834706e33755244422b416b4761787152775143544f4b46486a516b544b364676726f6c2b2f3446695151426c72366848417842325535726d5052416d3067726b4b356a50684946546a776f77474a46527a374232435a464c4c676b69517146724a70716b35784237667741593067725a662f435a697a41514d734362427045616d30795257436f4a775a73414a56385151306f416e4e616855563041646751416462535256593041616261425a3865674677494635354d4c424e53684c4e554b635a595934633041554561684a7043674c5a2b4b5159384a64635768497277414e444f3542754b4b684536784c6c43674b7a756845363677454e43784562536750773668467479776531795250494d4c443357684b4967414636774b6f66436f324861713079496241625941596b415166457951556c75784132594b346967424b6f3672636e385143537541507343684c54716747494d42497271366347384b5a74476847424f7167564151724d43494939494c6371455178652b784446734b5a4279725533696f6b3779784b6b613535347535773871784467796746497178467a514c457730416f51736131577137716f6531322b634c6c2f6568564465713566555171342f786d554632756a71794361574d45456a307358692f6f4d456441627864414669736d66653973576f384146486f73575a3843704f70436b68374353723173576932692b66794546613971794143714b36466f5672736f49743573426c4973585652716e613345444c756d6f543145474e4b6b46426d797a7234692f77596b47464b754e4474755657794441594b45494a346f55494b7167574447794a69414b582b475a6e64735557597535634e4732485377564c6b437834416b57797a752f686347784e437358504843596d61764448444147614a415673654367795173566236713256754736786e6f56545843492f4270654c36436a4e37433242464549577443384552474c5a7676414d7247665976444572627346556b775449786d796d73454d5178734b79706d744b3147336434753247446f52666675334a46454d676b73554d6e75394b69454c6372675245504347635039676f666662456a6b61426b6b624551623741685142776763626c7a4c68424f745a456c6141415a536274725751456e4641777531626b5a7241756d5a5143535a38454c464c71416778444b6c414552513841345377456967416d3364716d48627745525251735a59524241384b737867427774445945654362786f3172433879614556466343587a734254316345623449416564314159624c784e584b46664c616e344d376e797a3673314f7841756d7246337967776258687271704d42766b71746e67784176597243596c3672647963465647387465666245413867424666724677514d7a5a5735766479627a53695172485078434c7161756d6a527a385941746464736d372f7246656a4d677a56387547705242634d627232593877317668776b63637a6841684352396777344c7072566f4242547863466c757374374d6878476f4d6f49726778564152714a4d4c744c722f6163777a75362f7475676465654d49536d56754a304a5257454a6a304763675873625239774c724771416c6c6e4b6c703637307430625a7653786c363041575132622b5833424a345842493758414f6e6349514d3063646234517336304e452f55626863514e454b775149396b4b51645551755a6b496862665a517249626c6d664247796151736b7663616c36786d626d7050776d4c454a79784179367746765052717458424d4e484b5953345a784d4b4e692b7137724236786732454d796349516f2b61676e2f69524d5754636738775a5a6c674634677662744c775a543650426141454e6e7165397163554c4e52676234655141744b754258725738717545597445725153797951616b534c2f766a4d6c567351496b484d3071374c2b306173363330633862544154563678614a61354971334e54306d7444327168614a7538644e7363306f4b34574b5849524c696745372f7a325675557259464144546763485241567344496830567a5169354b4833535965484f54376e50724d4853756948546a484159672b3348653145485a6570654934414a5632725365386752346e7a5152484543544d71346e79734c4b63754c622f7a4c325679644f7272454a704856466845424b38756d5661775159493350467544506c544849614c33475679432b48774853434630515337734a6b5877526a397a694252454d516d754e437a4778584233596b3045424b5a7751394932346a4f6f476c67414a333930546879305473317a4c723879614f4a376b4e4c444c7a6e734a3031305a774679716d43454b675a6f4a30726754684444496978735538726a42316e584d7944434e64776a6d77373355666e47376a6277554252374c326c724f494e6b6161316a584252374b62414866585979665332434563336d352b70325532476f486443446f786d41424264776243762f394337446742484e674448564d3373344b434e48397648337735317468304c75724248734f416242636c6b4471327972726b73564b486b784a3277644178395a4e74517a706f426d5143717739474f614e4636483941734a5142344f654447787378326c68306c5365424a744f6c5a4871426b595a476a336546302b676c716d4143613449772f5035434a4277696e7234306f564242312b674268624c584b667479536b7741364f4f45564873335541787252794173776178344a44754546413935446552754f43636a71697478795941434b747742664d4f6a754c59417a524f344a7a616b7872776a447071344a6c52754748376a50352b6c39307345754462375170687a5a6341787946356d57306f6a3562417265484942304e417a644b38733832786f543667353679637844442b6f624e67417557707a437a77325446523543326835717a51372b48497447334d797a582f6d516e7a4c7648683241567836504443322b73767362373843622f5337684a713270452b594d45483372516868717754622b6655335a5269504d432b7a425375446475707a6236766f5179692f525159752b62796e41556e67416f78304a635a494f5233764a496e6f4169495141716b344a356a774e6d736b65687a634f75587264466f30636d6d726853444c637a632b3641583850564462776e43674a2f396d7544444161353666385565414d39356f5a6f2f33716e356a7138455052633133414c41455064314d4153357a74356d7364584e41505979344b4e3963416c2b66527a46546f456a6f505a516f41624a6541456a506862354850653575416d69373958746a504d6f7a31306a472b5556575a645272524e5a653955485965347a3865412f4d6476586271414458634b3853504a624f715643554a6761674d756e79716c2f587571664965494f5561346c6e7275372f776f456b45754566527655576e325a4757304b4a412b744731454a443572446c3045496254693334413845335833336a6d7a6f4c426e396f4e34524b6d38535277345141777745454444417a43596649515957584369513449426959326a5951534277454a6f4d626a43593663547759554f5148305557444e4b6841347551486c553639446a71436763764b464f7970426d6e776f5978656543736e496d41684a674b50476e3248446d304b46476853593071425843674149476d54364e4364557056617457705762467576647256366c657458734e534e5a505269674f7757777470416445465556717856596c344f4c6b413677717a44654a367661516c416c7a415456747330484442384f466d467a4341754655717764345258443549496a4d316c4955505836416f324574415170632b65455a534d50474c612b44545569532b306b706b315a4c5455322f63306f4934636639693042716342483545392b33564d786b7648564952646b6f664435534b6a47556565334468323469336642687a62486e6e734932776d4e7a554b445a574844564b662b38714b624d6f734b7571584f384d4a55774852566e4c6676434c6e667a587752386d4e4c6466674e4361382f684c61786136584743764d7961324f304e414275397273442f55494754714b416f6e744841704447654b51354d507a7170514945436f322b394341315a416f53306856487141773453517367694c4c56623463435966777241456b4d4e7731484547454336496f36646654414268697147614b4145454c654b6a4d494a4e614b4143724169616753444447514e414a6b43616f4a6a6c694178582f47495648584e554449776154736b7747526f323441696b336e723863536758634a4b5378417174734955504d634e384434556b6a464a436f53564464424d704e547251594241714765722f7756424556614a4370776b6a3471534f6c53625930354d71497a564a4a68654a6173516b56597272394b455636657454302f4553565856554f6c7464315546594a597731516c6f54484253374647726f4942624f61415567676f7a71733272444467484644693873654a6b31716c65346d424e54324b433179644466784270464d6b6a7861364f4739623437424c526b2f4b79706a497038505543314755595136302f65776f4130326a372f5847473745686f316a747130724542754d7969394547385557582b525256336743697344586f5172454338594b484e59457a4c4a314f5176764651647a4f5066302b4274696a5774347552674472464f3044574b4235764c6238535374534b457257544e6c556f4746474846444a4265553137325a6c6c7a7a76525656316e6c325346694c58676a30574838355a5056556a59423459526f50626f4168445643735a414f67332f322f306b7a70594c4261592b6156525353794a52713252534a6d5a6a6b344d6b5a72544447434a2f76774c4a564644494147554f333233676871536a536c4b436f7a307774366d6b6e6c3533434c5a705563795444344a5a6d6479454a4e49476b584170545951774e70676f394e4e505a306957616a7763716c5969696b534a446b754365487971707267386e73414948306f6536354f324244716b69426b596553326d50735a47616a775175642f623564392b4431396e6d345846477a6459635472337652496c6a3166654c326c764c54456e2b334b624d5a632f57694a472f707a50354b797a52722b654b366738344836747630653662392b36533065553434433645526e41362b635871625a4e71732f7070313636664f7561394c4569745036485152503263736948766f535a4547536845563161306a4d584652513846636b56674b436241434a6d48432b69706e6962516f7638742b4977465454573467645738636a4c2b394531784758744a467a6f6e46516467676a726d75396445624c65587576484c654d544448673939614d4c53425246444d5378576c537a5641514e6d5455354438397a5a4749534337726a714365373641564e79754a516744516c4471706a63445676534a4c51527053776f473957564e7569716978556a55546e4156307251314c7a5163536942496948695a4554517152544d344841666963695755756347446a7a754934317a34596632523862624d57705669394a6335566f6d456b6c52796b2b4c38634c65674f6352472b53754a2b356854417a4f4a786b4d664a41677a574a4d4b4938437543616b44586243413249724c2b6e4b48636179654539426e76496d426b6764516f5950487042625a627a796e394864707868656d4b4f735a4943315979336d4e6462436c7169306b726a68704f566248676758616e36435350762f6e45496a725274674a6a77594954747337536844614f4e707a4750483858314252487270544842386c4a552f7445475338377356564234416d7142305a68577235496f734d4d5967445849514d47766867793046383536353156414e4237495a43674e7a7846586b447a6730344662764473676a544f7a786c394d4a6f50716d5538685a396c435749673270454639353067437378514d30573955446d7646504452317a417a4a5a5374377157615474574b6456517541434777376d6f6872706b53654c7746595654306e426c527a69505a5077346b69436f51553458756869746b6952372f4b5776426b524d4a68446d65417447435955733530784a434f4d53644f4745707865666a4671466e726567686a33305772794a442f6936776e4d62434651517056544b4a456f59706257655252525a434a6d72665459454853586763756c42414937474b7a54786f424e692f677a2f3342554f676776445970536b3749537379546c37412b7a69524d4e5144597576756965526832496d53345961486b5535634577646a4973463741467177463769535577714d385a4c6f4b6454524645727568446e4b5a4335596863634b332b78724456335272424534556f42567441477174536f544e544e76686142474f7a4d6c315a344874564957306e337851575038775172377a564a6e57596b56426d5559454c615a554b4961386753764c6f5146655a53476970774e4347675a46744b6a797477587676307a6a47524d4b3630755351452f57625845524956675a4d5a42627a4675784c36665558754468627248695436355766794d42655a4146634743654b68516c7a39357765516730466b4550446b58713273796d475a575a4e4767524a57494a4831436b4d435853623154782b715269704841515468454143445941427841656d30424a6b77614d325a4145486b6639346842354f674945307359354f5a35674657325a34412b2b6b78415a5467434a6a32714932427a4369416d4b6a6a7147596f51636d68493535473244473352794241786c366d5257413849454d36687744464769506f767a30457837384d4230765932495a61314d4b464f7a6b35542f41344746736b675162396f776b326c326b436f4b6c43773255374a697a71744e51697137554d7a6a516c6b74494167394e6c756d51476449434841535a4d6337495179347832594f586c6c6e4843576863477559417853373441524c44614947682f66554862724c6b4656793238716f6c3457714c4a4d4d4b5169707a4a7635675a32697659677532514c5153466d4b4b4a774f534c6f4c574b55304d6f576b5471454b6951457042446d51715a7853634141627742566f6c69506d49524b7741416d5a5162317657506337313573454f544a6a334853795233653857657458426258482f77546437634261583145466f4945494d4771344468396335657632685177796d50514e575150554c58346f72684d5373366a4c445a425650654b32354948466e6944653834315a3577634d6a446e475374647a6c4c6f6346354b72794246536b504131784f446e4b665a37796e364d5a566f573477637a7666472f414f426e6f45472b424d38477a39496933594157542b4c6e447a5453676c37765667565349733565336e5977305930586d4d79645a5773612b644a493549416f7678506b7a4d4e36466a563841445865457a4d764a506d43693239336f5547383479636d373978676758583941627a7144496c414276614f38423041414441566b374157346731627548666c4f78594d636564594b6b6c5a7a51437a6c457235696859646573364e337362474d326a39576a574959654341424a553442377733377a4d645147505551686d45613070396539796331766331622f397131336666656c63492f4f50474861487a664a3255515a6e6942464734676856334850766569436e354c4568454d47354269764c35442f764742542f336b56392f6757555539333077524364652f34424343474a55686d722b485045526844744c586e52774758507a5334782f302b3164782f7a2f7666394544515037375077494d7741496351414e4d514152635141467377414e3051415745774f6d627750796a775047725141793851413355507736307741374d77412f63514138635152416b515245735152526b774164637751686b515256735152683851526d55514270307752714d775275635152766377524473515250307752514577684d6351694573776838387769424551694a5551694e4d5169665551527a6b515369637768797351696d3077696a4d516971385169375551697a6377695a637769634d517a4a6b516a4d63777a4d55517a5573517a5273772f383154454d3242454d352f454936374d4935744d4d363945493833454d39374d4d37394d4d3868454e42644d4d344c4d524266454e43504552445445524752455248584d512f6a4d52416e45512b6c4d524b704552417645524e7a45524f744552492f455246444d5647424d5652464d56484e455653504d5653584556506245564d644d564e684d564f664556616a4d56616e4556625645566454455665524556665a4d5665424d5a66334d566844455a5a504d5a62524d5a637845566d564d5a6d54455a6f58455a6e4c455a7146455a724a4d5a724e455a7472455a73374d5a7466455a706a455a77484d6470464d6479444564304a45647a7a455a752f455a76624564345a456435664d6435644d6431544d647a5645643876456439374d64382f45642b6a45643648456837464d694372456544544569455845694133456548394d65416a4d6948624569496e45694a50456a2f676c54496a4752496a4f78496a6652496a76784969787a4a6969784a696a7a4a6930524a6b6c524a6b4e78496c32784a6d42544a6b4a7a4a6c35524a6c727a4a6c4d7a4a6c64524a6b2b524a6e4e7a4a6d71544a6d42524b6d787a4b6f44784b6f2f524a7051544b6e6d544b6e32784b7148784b7153524b7169524947484d392b4d4e4b5364424b7274784b72387a4b7277784c7342784c73537a4c7269544c737a524c7455784c746c784c7430544c7434784c7549524c396b6e4b6f727a4c716c7a4b714b52464e4c6752763679467677784d4d41484d7752524d7779784d7844784d7853544d7857784d786e784d78347a4d7849544d795a524d79367a4d776b7766765a784b70397a4d764d524c524b51374268424e30757956307179693078784e3031784e3147524e3157784e3248784e3255784e326e544e326f7a4e3235784e3239784e334f524e3365784e304c544c2f383863547337637938343854754e4d7a754a635473394579754238547549555475654d5475696354755a457a7574557a75625554757a637a75797354756b4d542f4163542b6f73542b7630547654735476586b547662387a765273542f4d557a2f676b7a2f4f6b542f6d73542f6863542f66557a2f66637a2f7a38542f2b305477476454774c4654774f395477546c54775546305035733041554e5541644e30414b5630414d64304171645541754e554168395541337455413739554161395542476c55424c4e554250465542546430424264555256745551396c30525174305267393052476c55526d7455526746555266563052666430527a395552734e30686b6455687774306876745553546c555355463069526c3069555655694f4630694f5655696f6c306962315553793955693139306932645569757430696a39556a454e30797a6c556a4e31556a5174307a5164552f38764a644d3266564d7768644d3150564d3172644d7574564d365a644d3433564d3937564d3335564d386e564e424456524376564e442f564d2f6c564e4558565246626451386664524250645249686452435a565241646452457656524e6e56524f7264524f6c5652504464564d4856564c4a56564d4c565652705652515856565662645650526456546a64564e6864565a5a64565876645655785656627a64566137565654395656612f565664645656653356566a4a565a6844565a6c6c64566b5a645a6c52565a6f48565a704c645a6f42565a6e76565a727a645a6d72645a6a6e645a7570565a7666645a74485664784c56647344566430425664312f565a324e56647464566479505664346e64643254646436585664757a56643533646433356464343156643874566541765665437064642b5064682f5456694446566947445669484c6469475656682f5856694b6e566a2f697831596a4933596a483359696b58596a7056596a3731596a52315a6a69565a6943335a6b45315a6b46335a6a30585a6b33335a6a59565a6b32315a6b61565a6c62565a6c70565a6c34315a6e70335a6d76335a6d7758616e4133616e74315a6e7a5661704231617063565a70685861704331616e593161714a3161703631616f6c3161717a316171645661716e33617247336171775662724133627266566173793162744256627466316174695862726b3162726f336273313162747831627536586275345862755a56627665316276503362747333627574316277765662766e31627742336377453163775431637879316378483363786d5663796c316379343163794a56637a44566378653363796233637a39316330645663307331637a36336330775664314331647a6d33643054586430493364315a316431585664316e316432345664326b316433705864327356642f2b43395865485633642f31336437643365484e5865554e5875493933754a46587568393375564e58756164337559315875794e587565745875366c58752b395875334e58756e64587648745876443958757374582f554e582f5964582f5131332f5346582f6c31332f596c332f7039582f7739582f324e582f7274582f7631332f7a6c332f3264337745473450733959414d575941556d3441554f5941542b587768653377526d594170325941754f344165575941787534414c755941372b3441774f34516e573441734734524b75594138573451316559524a4f34524e2b5952646d5952567534524765345267323452744759527157345272755952332b59526a475953473259522f655953504f345341475969546d5953592b3469496d5969556534695365346961475969657559696c6534697a65596976753469662b5969794f596a476d596934473479732b59793865592f387456754d79446d4d304e754d304a6d4d326e6d4d35686d4d3764754d347a754d32336d4d3658754d37666d4d382f6d4d2f486d512b72754e41506d5241546d524337754e43586d5242666d5245316d4e476e6d5244626d52466875524c6a6d524c706d52483775524d2f6d524a4275564e726d524f486d564e506d5652526d56504c6d56574a6d564d446d5659666d56546e755657586d565a56755662546d5658746d5665707556636a6d566344755a6439755665426d5a644e6d5a6b4a6d5a6c7275566c2f6d566e46755a6b5a6d5a7048755a7068755a6e50755a724c6d5a71336d5a74746d5a7678755a7162755a75466d64774c75646f4e6d6479446d6431356d5a302f755a7a667564305a75643164756473726d64366e756434486d643868756437626d64352f6d6439426d682f35756542746d6542337565445475682b4a6d69477a6d654852756941586d6944626d6a2f6959626f6831626f6771376f6a4e376f694c376f6a725a6f6975626f69665a6f6b675a706a4135706c4235706b2f376f6b3235706a5537706c315a706c7937706d595a706b5935706e4b35706e5762706e4c5a706e355a706e7162706f4637706d7937716e795a71704e35706f545a716f4737717042357170583571707535707034357171345a71724a357172543771713135717166377171755a71736662717267627272423572716b3772736c37727377357274315a7274475a72736d35727548377272625a72757035727659357276735a72767a6272765a62727671357277685a7377383572774237737579357378443773774735737876377278586273784b5a7379565a737a4c377378393773796f35737a353573794f5a73797737747a5037733068357430535a747a54627431516274314837747a6e5a743170357431493574323237743038357433496274327535742f39725737642f6d6264556562746b75627541326275464f3774734f62755a47377556576274393262756b2b6275714762754a2b377570753775794f62757a6d3774335737752b6562757365372b3447622f4d57372f496d622b382b372b3175622f572b37765647622f6c32622f5a2b622f744f622f7165372f4347622f362b372f332b372f7247372f67573841445837774c7662774c336277514863414e763841562f634156336341625062776850634175666341772f3841692f3841725063416e58634137663841483363416f6e63524d50635251666352442f634262766342635838525576385269486352705038526d2f385261766352585863527958385279336352345063683866386850666353412f3869496e3868345863694e763869562f3868393363695a2f635357503869716e63696c486369692f3869536663692f58636976763869332f38697776387a452f6330517a4a334d7352334d755a334d3166334d77622f4d77642f4d34542f4d36702f4d357a2f4d3168334d3746334d39392f4d3976334d2b78334d354c2f5242503352444a335241522f512b442f5246563352496233524762386941414141682b5151464867414941437a6f4154594256514165414141447269686a6f65787478536568725a6a7179652f325855454168306961355a69654b7571324d43757639447662395a654665732f2f6f4f424f474d76646972676b636e6c73476f6e416f6451487255366453697a7a6d655675753163724e5577656d37566f627872385059756a376a4a387271367a3132303858663775382b39326559463667333578683375496859434d676f324a6b4961526634365668492b4c697053546d70615a6c3536596d354b6b6f364b68714b43637136576471702b777036796d72713276737247707472753073377134774c5739764d4b2f7872664676737245794d324c435141682b5151464867414541437a6f4154594244774164414141486d494145676f4f434349534868413476456f6744436949725169515947797948444251574a526f6349445566453563764e785534467a4f656c6f6944417a41656f4b75454e712b71735151744e4c433274783064746247347572617a7672753877734339763676426f62764579346a4e786b484b314c6e4f77396250324e6646334d6a4d323972683068386551343042437945514f2b63384477324f67694d704f54495a7661386d4b436377446742454b45584568343459425138574246496f78434d56446e3941664267494143483542415565414149414c5030424e7745534142304141416a2f41415549464c4167676f734b4f71704967734b6b774d434868564274385649695335594e6e4c696b4166557777434974476d4159386b526d535a4d63594435554354547751515a574c5241384a44694a307763704132393073504270706b4242617a356b57414641795134516e43344d384e6e67464e494a42486e5541474569464e4d58484d61674559686d3078635a4158774b4b5056427a466143687851744556744554566b7a596e324b79675443457375344c6431365959525859414a52626a4d35537344324361516f715443746d534b4b514677486244536b37434a4a4c64346a4930677067714a473867556e4476756976634a68722b69575162764150643267555965644b6b344c494b53464b74454a566e434d6548784a36416f4a58737269364d535774476f6f5970444741434232425263504742784d634e4e6d46614b344c576a55534958355a595334454936714f61594a5273616742523146585242657847386c696f38532f545a44706259584741773655724430785573587961566459414e784d794651426e325255484c4b4334634977746f4336496b56454141682b5151464867414541437754416a594245774165414141492f77414a434277344541484267775154444872534934594d536f38694845456f3045476b4c4a73796166544361644d4a4f51594a466b4b785351596951555751504d6a44456375684241564a546e6c7a4d4147554c6941734f42434934416b4e54524943494752516f5138594f67734948496b4567674e51696e5043644944524b6b434357423661546f44714a53644d416f637932484c4a74554f6c676738574d52474b304d557444342b4b554278614259514757484e723370464b525546656e6f543261744244633236645235416d586345695335486375514a6b614144543055654c4a482f424a70724455457447466b6f7944347854644577654f4b49727a7372713472486f42786b2b5a4d4b632b6f674d7530365548716f53673948586d6e7336644767307741476d44794434784b486f7173634847685153764e4c51464150746d68633830476753414d4b4d573567634d5532417569583543715731786b775977467857557a774942746a3834744a4951744a767261446d43596c4c6c7a78324d4146424248645955674d6e2b7456456832517a6444455a4457434574393951687277677852353552444848494348397451414144655156454141682b5151465941414441437771416a63424577416341414149365141426b416c6842456b4467675952486978595a4143434b466659724d6b7973614a456968497276416e77423851486a7839446468414a416f55444248773865504754516f6f656c7a437053456b5a4a5145634c4732654e426a41733264504a6c677577426b514a344e516e306956544e456767616545444867534950585a424f724f41552f6e544f334a6f416f5743442f334d4e6e4b307736586d6c79584343417234672b474d6d533331766d534a6b4463704265306a4c694c6c4d34584e513335386778784167776477542b376c49434c2b4b45596a59694a346a7754756347454d535965564c6277415a43437947597967434278705045644e78366753425773774d70484d354742677569694762475a4d4371546d4f3554306b466b4e423674724259384a304d584e4173714f35476a4a4735414144733d",
    "linkReferences": {}
  },
  "methodIdentifiers": {
    "balanceOf(address,uint256)": "00fdd58e",
    "balanceOfBatch(address[],uint256[])": "4e1273f4",
    "counter()": "61bc221a",
    "getLotteryNumber()": "f979db71",
    "getLotteryNumbers()": "e364c947",
    "imageURI0()": "49414762",
    "imageURI1()": "98b6a084",
    "isApprovedForAll(address,address)": "e985e9c5",
    "lotteryNumber(uint256)": "3cd93ec2",
    "mint()": "1249c58b",
    "owner()": "8da5cb5b",
    "paused()": "5c975abb",
    "renounceOwnership()": "715018a6",
    "safeBatchTransferFrom(address,address,uint256[],uint256[],bytes)": "2eb2c2d6",
    "safeTransferFrom(address,address,uint256,uint256,bytes)": "f242432a",
    "setApprovalForAll(address,bool)": "a22cb465",
    "setImgURI0(string)": "2c98d561",
    "setImgURI1(string)": "021bc48e",
    "setMeta0(string,string)": "771793f7",
    "setMeta1(string,string)": "781fffdf",
    "supportsInterface(bytes4)": "01ffc9a7",
    "togglePaused()": "36566f06",
    "transferOwnership(address)": "f2fde38b",
    "uri(uint256)": "0e89341c"
  },
  "id": 0
}